:1000000000800010FD0000006B1F00006D1F00004D
:100010000000000000000000000000002B40FFEF87
:100020000000000000000000000000006F1F000042
:100030000000000000000000711F0000617400005B
:10004000691F0000691F0000691F0000691F000090
:10005000691F0000691F0000691F0000691F000080
:10006000691F0000691F0000691F0000691F000070
:10007000691F0000691F0000691F0000691F000060
:10008000691F0000691F00002D720000691F000039
:10009000691F0000691F0000691F0000691F000040
:1000A000691F0000691F0000691F0000691F000030
:1000B000691F0000691F0000691F000000000000A8
:1000C000E4DA010000010010FC030000E4DA0100A2
:1000D0000000002000000000E4DA010000400020E1
:1000E0000000000000050010D04B000000000020C0
:1000F00000000000004000200000000010B5104C7F
:10010000104B9C4206D2A2686168206801F031FF62
:100110000C34F5E70C4B9C4205D26168206801F075
:1001200031FF0834F6E701F089FE084B002B02D0BE
:1001300000E000BF03E008F0CFF800F05DF8FEE754
:10014000C0000000E4000000FC000000000000000F
:1001500010B5064C2378002B07D1054B002B02D09D
:10016000044800E000BF0123237010BD000500100B
:1001700000000000E4DA0100084B10B5002B03D0AA
:100180000749084800E000BF07480368002B00D17A
:1001900010BD064B002BFBD09847F9E7000000008C
:1001A00004050010E4DA0100FC0400100000000067
:1001B000012210B5024B03481A8004F04FFE10BD17
:1001C0002C01001080C60100022210B5024B03482A
:1001D0001A8004F043FE10BD2C01001080C60100FF
:1001E000032210B5024B03481A8004F037FE10BDFD
:1001F0002C01001080C60100F0B5C64C95B02368F4
:10020000013304D12422C449C44801F0F5FB236919
:100210006268C34C1A60C34923007022200002F0B8
:10022000B1FEE26E2300002A02D0627F062A23D9A3
:10023000352202209A663A321A8558776E3A181893
:10024000C2779620D88674381887C4305887E33828
:100250009887B548062458640D20404298641800D9
:100260004D30002104701800D9661A779A77DA7732
:1002700050305133027019700124002503F00CFC3A
:10028000AA4BAB4A1C70AB4B2E001D80AA4B200022
:10029000DA80FC22D2009A800322A84B1B789B08AC
:1002A0005A43139205F0F2FAA54AA649200005F038
:1002B000F1FA0E9503F07EFB002801D100F05BFE01
:1002C000A14C2368002B05D0A04A1278002A01D146
:1002D00000F048FD02F02EFC9D4F002805D03B6841
:1002E000013B3B6080235B00236002F029FC002877
:1002F00005D03B6801333B6080235B00236002F044
:1003000001FC0125002800D0093502F001FC00287D
:1003100000D064253B68002B01DA00233B603B687A
:10032000062B06D17E4B0233DB7F002B01D10A3333
:100330003B603B68092B06D1794B0233DB7F002BF6
:1003400001D105333B603B680F2B01DD00233B608F
:1003500038680F2800D994E108F00AF92800100045
:100360003E0056006C007C009400AC00C400FC0011
:1003700014012E0147015E017001870102F0CEFBDE
:10038000002805D0664A936E9D4201DC00F028FDEE
:1003900002F0CAFB002800D173E158226049521BC9
:1003A0008B6E934201DA00F022FD6AE102F0B6FBA7
:1003B000002805D05A4A537F002B01D000F01AFDC7
:1003C00002F0B2FB002800D15BE1554A537F052BB8
:1003D00001D800F016FD54E102F0A0FB002805D082
:1003E0004F4A138D9D4201DC00F011FD02F09CFB91
:1003F000002800D145E1FF224949521B0B8D934251
:1004000001DA00F00BFD3CE102F088FB002805D08A
:10041000434A937F002B01D000F005FD02F084FBDE
:10042000002800D12DE13E4B9A7F002A01D100F037
:1004300001FD26E102F072FB002805D0384AD37F87
:10044000002B01D000F0F9FC02F06EFB344B0028C9
:1004500012D116E102F062FB002806D0304B0233C5
:10046000DA7F002A01D000F0EFFC02F05DFB0028EB
:1004700000D106E12A4B0233DA7F002A01D100F0D5
:10048000EAFCFEE002F04AFB002805D0244AD38EA5
:100490009D4201DC00F0E2FC02F046FB002800D1A6
:1004A000EFE0FF221E49521BCB8E934201DA00F08F
:1004B000DCFCE6E002F032FB002805D0184A138F7E
:1004C0009D4201DC00F0D4FC02F02EFB002800D19C
:1004D000D7E0FF221249521B0B8F934201DA00F042
:1004E000CEFCCEE002F01AFB002805D00C4A538F58
:1004F0009D4201DC00F0C6FC02F016FB002800D192
:10050000BFE0FF220649521B4B8F934201DA00F0F5
:10051000C0FCB6E0A405001088A20000D2A2000032
:1005200030050010EAA20000C0F9FFFF842E001081
:100530001084FFFF902E0010802C0010320100105C
:10054000991301003DA400000801001004010010EF
:100550001C05001002F0E2FA002805D06B4A938FC8
:100560009D4201DC00F098FC02F0DEFA002800D188
:1005700087E0FF226549521B8B8F934201DA00F01E
:1005800092FC7EE002F0CAFA002807D05F4A604978
:10059000536C69188B4201DB00F088FC02F0C4FA4E
:1005A00000286ED0FA225949D2004B6C521B93425C
:1005B00001DA00F082FC64E002F0B0FA002807D013
:1005C000524A5449936C69188B4201DB00F078FC65
:1005D00002F0AAFA002854D04C494F4A8B6C521BA7
:1005E000934201DA00F073FC4BE002F097FA002826
:1005F00006D0464B4D331A78002A01D000F06AFC31
:1006000002F092FA00283CD0404B4D331A780F2A62
:1006100001D800F066FC34E002F080FA002806D031
:100620003A4B50331A78002A01D000F08DFC02F0CA
:100630007BFA002825D0354B503310E002F06EFADB
:10064000002806D0314B51331A78002A01D000F02F
:1006500082FC02F069FA002813D02C4B51331A782F
:10066000002A01D100F07EFC0BE002F057FA0028CE
:1006700001D000F07AFC02F057FA002801D000F017
:1006800074FC05F0FDF8864202D080235B002360F5
:100690002368002B00D167E3002403F01DFF1F4BEC
:1006A000DB22210020001C80962304F067F91C4BFC
:1006B0001C80FFF77DFD1B4804F0F4FCFFF784FD70
:1006C000194804F0E3FCFFF78BFD184D2B68A3429B
:1006D00001D1FFF76DFD0D4C0A21607F04F038FD5C
:1006E000607F2600062832D807F038FF0406080A83
:1006F0000C0E2E000E4828E00E4826E00E4824E09E
:100700000E4822E00E4820E00E481EE030050010A2
:1007100030F8FFFF48F4FFFFB80B00002C01001079
:10072000902E0010F3A200001AA300001C05001078
:1007300021A3000026A300002EA3000033A3000085
:1007400044A300003DA30000E04804F0ABFCFFF729
:100750003BFDDF4804F09AFCFFF742FD2B68012BBC
:1007600001D1FFF725FDA36EDA4FD9B2380007F0AB
:10077000E9F8380004F096FCFFF726FDD64804F0AF
:1007800085FCFFF72DFD2B68022B01D1FFF710FD33
:100790000A21208D04F0E0FCFFF716FDCF4804F09D
:1007A00075FCFFF71DFD2B68032B01D1FFF700FD42
:1007B0000A21A07F04F0D0FCFFF706FDC84804F032
:1007C00065FCFFF70DFD2B68042B01D1FFF7F0FC52
:1007D0000A21E07F04F0C0FCFFF7F6FCC14804F0FA
:1007E00055FCFFF7FDFC2B68052B01D1FFF7E0FC62
:1007F0000236F07F0A2104F0AFFCF37F002B00D11A
:10080000F3E0FFF7E1FCB84804F040FCFFF7E8FC38
:100810002B68062B01D1FFF7CBFC0A21E08E04F0F8
:100820009BFCFFF7D1FCB14804F030FCFFF7D8FC8B
:100830002B68072B01D1FFF7BBFC0A21208F04F0A6
:100840008BFCFFF7C1FCAA4804F020FCFFF7C8FCB2
:100850002B68082B01D1FFF7ABFC0A21608F04F055
:100860007BFCFFF7B1FCA34804F010FCFFF7B8FCD9
:100870002B68092B01D1FFF79BFCA08F0A2104F004
:100880006BFC02239C4D822240212B8054201B3381
:1008900004F042F901232B80208D08F0C9FF97490D
:1008A00008F0C2FC964908F0F5FA011C954808F0DA
:1008B000CFFDFE21890508F077F908F04FFF07000A
:1008C000E08E0024A04210D008F0B2FF8C4908F05E
:1008D000E1FA8421C90508F0A7FC011C8420C005A9
:1008E00008F0B6FD08F03AFF0400230055330F93DB
:1008F0006B46013F3FB23C229A5E55203B005C2193
:1009000003F07CFF804D5C26688F002812D008F031
:100910008FFF7E4908F088FC794908F0BBFA011C7A
:10092000784808F095FDFE21890508F03DF908F0AA
:1009300015FF0600288F002800D15C2656340028B9
:100940001DD008F075FF1090288D08F071FF011C74
:10095000109808F09FFA8421C90508F065FC011C75
:100960008420C00508F074FD051C200008F018FF65
:10097000011C281C08F018F908F0F0FE04000F987C
:1009800023B21093013033B2390000B2109A1193A0
:1009900003F034FF5C4D6F8F002F0BD0A88F08F051
:1009A00047FF0F90380008F043FF011C0F9808F034
:1009B00071FA1290AB8FD522002B10D0101B08F0CB
:1009C000EFFE129908F030FC011C514808F040FD80
:1009D00008F0C4FE2200844200DA02005C2633B232
:1009E00012B21199109803F009FFFFF7EDFB494887
:1009F00004F04CFBFFF7F4FB474C23680A2B01D1B2
:100A0000FFF7D6FB404E0A21706C04F0ABFBFFF7FA
:100A1000DBFB424804F03AFBFFF7E2FB23683500BA
:100A20000B2B01D1FFF7C4FB0A21B06C04F09AFB39
:100A3000FFF7CAFB3A4804F029FBFFF7D1FB236814
:100A40000C2B01D1FFF7B4FB2B004D3318780A2192
:100A500004F082FBFFF7B8FB324804F017FBFFF706
:100A6000BFFB23680D2B01D1FFF7A2FB2B005033F6
:100A700018780A2104F070FBFFF7A6FB2A4804F05F
:100A800005FBFFF7ADFB23680E2B01D1FFF790FBB1
:100A900051350A21287804F05FFBFFF795FB2348C6
:100AA00004F0F4FAFFF79CFB23680F2B01D1FFF74A
:100AB0007FFB1F4B0A21187804F04EFB1021782091
:100AC00003F032FA03230C4C34E0C0464BA3000081
:100AD00053A30000230500105AA3000063A30000E5
:100AE0006AA3000071A3000078A3000083A30000A4
:100AF0008DA3000099A300002C0100100000D84134
:100B000000007F430000B842300500100000E041C3
:100B100000005543A5A300001C050010AFA3000072
:100B2000BBA30000C6A30000D2A30000DEA3000008
:100B30002F050010EC48238004F090F9EB4804F0F6
:100B4000A5FA1821782003F0EFF902230126E848DE
:100B5000238004F09BFAE748268004F097FA0223EA
:100B6000E54F2380380004F091FAE448268004F031
:100B70008DFA02233800238004F088FAE04D2680A5
:100B80000A21687F04F0E4FA02233800238004F08D
:100B90007DFA26800A21A87F04F0DAFA02233800C1
:100BA000238004F073FA26800A21E87F04F0D0FA4B
:100BB00002233800238004F069FAD24B2680D87FC4
:100BC0000A2104F0C5FA02233800238004F05EFAFB
:100BD00020217820268003F0A7F90A21A86E04F0CE
:100BE000B7FA02233800238004F050FA26800A2145
:100BF000288D04F0ADFA02233800238004F046FA71
:100C000026800A21E88E04F0A3FA0223380023800C
:100C100004F03CFA26800A21288F04F099FA022376
:100C20003800238004F032FA26800A21688F04F00D
:100C30008FFA02233800238004F028FA26800A2144
:100C4000A88F04F085FA02233800238004F01EFAEE
:100C500028217820268003F067F90A21686C04F0C7
:100C600077FA02233800238004F010FA0A21A86CD6
:100C7000268004F06DFA02233800238004F006FA7F
:100C8000A14B268018780A2104F062FA022338006A
:100C9000238004F0FBF99D4B268018780A2104F08C
:100CA00057FA022338002F002380513704F0EEF961
:100CB00026800A21387804F04BFA022394482380D6
:100CC00004F0E4F970217820268003F02DF9032345
:100CD0009048238004F0DAF97821080003F024F921
:100CE0008D4804F0D3F98021782003F01DF98B485A
:100CF00004F0CCF93978AB7F6A7F0C9183490024EA
:100D0000097887480B91804909780A91A96C09B242
:100D10000991696C09B20891A98F0791698F0691B1
:100D2000298F0591E98E0491298D0391A96EC9B28D
:100D300002917449C97F0191E97F0091310006F069
:100D4000B9FF04F09DFD774B06001C70764B1B78B5
:100D5000A34209D0754B2800EB6602F0A1F8724B54
:100D60001C7001E0013B23600023714C714D238016
:100D7000714B28781A78902103F0F8FC01230E9A21
:100D800023806E4B9C5C80231C1B139BA410E418D7
:100D90008F2C00DC90242878694F02B20138397812
:100DA00000B2230003F02AFD0022B02311000093BB
:100DB00010002C3302F03EFF00225D4B61491A8087
:100DC0002B7809780133DBB23C702B70994205DD3A
:100DD0000E9B0233DBB20E93FFF76CFA2A70F7E733
:100DE0005B1B936680235B002360FFF7D1FAED184D
:100DF0008D6615E0013B537780239B002360FFF74E
:100E0000DFFA0133537780239B00236039E45B1BB7
:100E1000138580235B002360FFF7E8FA5D190D85D9
:100E200080235B00F1E7013B937780235B00236025
:100E3000FFF7F4FA01229A77F2E7013BD377802398
:100E40005B002360FFF700FB013ADA7780235B0049
:100E50002360FFF70AFB0122DA77E1E75B1BD38609
:100E600080235B002360FFF717FB5D19CD86D7E772
:100E70005B1B138780235B002360FFF725FB5D1955
:100E80000D87CDE75B1B538780235B002360FFF753
:100E900033FB5D194D87C3E75B1B938780235B00A2
:100EA0002360FFF761FB5D198D87B9E75B1B536416
:100EB00080235B002360FFF771FBED184D64AFE703
:100EC0005B1B936480235B002360FFF781FBED18BD
:100ED0008D64A5E7013A1A7080235B002360FFF759
:100EE0008FFB01323FE0C046AEC90100EDA3000018
:100EF00001A4000009A400000FA400000DA400003C
:100F000030050010320500107D050010800500102E
:100F100011A4000014A4000022A400002FA40000CB
:100F2000184B0010040100102F0500104E61BC008A
:100F30002C010010A005001032010010AE3200108C
:100F4000200500102F010010013A1A7080235B0069
:100F50002360FFF76CFB013A1A7080235B0023606B
:100F6000FFF777FB01221A705AE70122034B1A7030
:100F7000A0235B0149E715B0F0BDC0462F05001066
:100F800010B51C4802F080F81B4803F079FF1B4C99
:100F900018220021200007F0E2F91949200000F092
:100FA0007CFD184C200001F0FDFD35230221A366D5
:100FB0003A33238561776E3B6118CB779621E186C2
:100FC00074392187C4316187E339A1870E4906202E
:100FD00061640D214942A16421004D310022087055
:100FE0002100E2662377A377E377503151340B7009
:100FF000227010BD2105001022050010A40500106C
:10100000381C000030050010C0F9FFFF022307491B
:101010000A7806481A42FBD0FF22054B1A70FB3AA9
:1010200001781142FCD01878C0B270470C0004401F
:1010300008000440022307490A7806481A42FBD0F8
:10104000FF22054B1A70FB3A01781142FCD0187848
:10105000C0B270470C0004400800044010B5010005
:10106000014800F08DFE10BD68060010F8B543B2CF
:1010700004000D00002B07DA00217720FFF7F6FFB0
:10108000012831D87F231C40A026882380279B017C
:101090003606F750FFF7BAFF8A239B01F750FFF798
:1010A000B5FF2000FFF7DAFF280EFFF7D7FF280C67
:1010B000C0B2FFF7D3FF280AC0B2FFF7CFFFE8B2F4
:1010C000FFF7CCFF9520402C03D09438482C00D15A
:1010D0008630FFF7C3FF0A24FFF798FF030603D506
:1010E000013CE4B2002CF7D1F8BDFFFFF8B51D00BC
:1010F0002F4B07001B7816001B0700D44902512014
:10110000FFF7B4FF002801D0012447E0294CFFF786
:101110007DFFFF2804D1013CA4B2002CF7D1F3E7F6
:10112000FE28F1D1244C641BA41BA4B2002E06D1CE
:10113000224B002F1AD022480426007811E0013EED
:10114000FFF778FFB6B2F1E71E4A10701A78324204
:10115000FCD01C4A013D1278ADB23A700137002D27
:1011600016D002211A780A42FBD0EDE702210427AB
:10117000134A144816781A780A42FCD006701A7876
:101180003A42FCD00F4A013DADB21278002DF2D1A7
:10119000013CA4B2FFF74EFF002CF9D18823A02216
:1011A00080219B011206D150FFF730FF2000F8BDCF
:1011B000BE05001030750000020200000C00044063
:1011C000D6B7010008000440144B10B51C88023447
:1011D000A4B2002C04D00020FFF740FF013CF7E749
:1011E000FFF714FF1F230124184005280CD10C4CD5
:1011F000FFF70CFFFF2804D0002C02D0013CA4B262
:10120000F6E763425C41E4B28823A02280219B017F
:101210001206D150FFF7FAFE200010BDBC050010E9
:10122000E8FD000073B58823A0258024404E9B0173
:101230002D06EC503F49300000F098FD00220821B7
:10124000300000F087FD84239B01EB58234201D13D
:10125000FFF7BAFF6425013DEDB2FFF7D7FE002D81
:10126000F9D129004020FFF701FF0400012848D1EF
:10127000D52148204900FFF7F9FE012815D1FFF7D5
:10128000C5FE01AC28550135042DF8D1A378012BFA
:1012900037D1E378AA2B34D1274D8021E920C90525
:1012A000FFF7E4FE011E11D115E02900E920FFF748
:1012B000DDFE4126012801D80224E9261F4D002128
:1012C0003000FFF7D3FE002817D11CE0013DADB27E
:1012D000002D16D0E1E77A20FFF7C8FE002810D1D4
:1012E0000500FFF793FE60550135042DF9D12378F1
:1012F0000C245B060ED42C000CE0013DADB2002D99
:10130000DDD1002406E0802150208900FFF7AEFEE9
:101310000028F6D10A4BA0221C70882380219B0153
:101320001206D150FFF772FE60426041C0B276BD36
:1013300068060010002D3101E02E0000A8610000B9
:10134000BE050010064B1A68831ED16800200239C2
:101350008B4203D250784343906918187047C046B7
:10136000C00500100F4B10B51A6800230380836876
:1013700004001800012B13D0D16801208B420FD23A
:10138000002B03D11178032900D15369E360002BAE
:1013900003D01800FFF7D6FF00E05069206100205D
:1013A00010BDC046C0050010F0B5040085B001288E
:1013B00054D92C4B1D68EB6898424FD22E78022EE0
:1013C00032D0032E38D0012E48D181B24B08C91833
:1013D00089B24B0A0193244BCA05D20D296903AF88
:1013E0009A4204D0019B3800591802230EE0019B59
:1013F000380059183300FFF779FE021E2ED12969F3
:10140000019B0131C918330002A80530FFF76EFEB9
:10141000002823D17B7838781B0203431811E20798
:101420001DD41805000D1AE02B69C2B2010AC918B3
:10143000520003AD330007E07F22042329690240F4
:10144000C4099200611803AD2800FFF74FFE002881
:1014500004D168782B780002184300E0012005B021
:10146000F0BDC046C0050010FF01000070B5048843
:1014700005000134A4B2002C01D1032322E003694A
:10148000002BFAD022071BD101330F4A0361C06839
:101490001668002803D1B388A342EED910E0737810
:1014A0002209013B1A420BD1FFF77EFF012398422C
:1014B00008D9F3689842E0D2E860FFF743FF28615B
:1014C00000232C80180070BDC0050010FF2270B5ED
:1014D0000223520004000D00FFF708FE032300283A
:1014E0002AD16278237812021A43144912B20223D5
:1014F0008A4221D1362229002000FFF7F7FD00287B
:1015000009D1637822781B0213430D4A1BB2934220
:1015100001D1002310E00223522229002000FFF70E
:10152000E5FD002807D1637822781B021343044AA3
:101530001BB29342EDD00123180070BD55AAFFFFE6
:1015400046410000F7B504000D002B78202B01D197
:101550000135FAE72F3B5A4253410027ED18A760A7
:101560002B78202B01D901972EE02000FFF7FAFEFF
:10157000404B06001B689B681F7078E0009B1B783F
:10158000002B68D00822009BDB7A13405BD1626895
:101590000099581CC95CD35C994254D103000B28B4
:1015A000F6D1D37A002B62D13B689868C37ADB0608
:1015B00056D5437D017D1B020B43C27E1904837EF9
:1015C000120213430B43A3606068020003000B3256
:1015D000934203D100220821130013E02021197047
:1015E0000133F5E72F2B12D02E2B3BD091420ED991
:1015F0001F00613F192F01D8203BDBB2571C8354D9
:10160000FAB233005E1CEB5CF6B2202BEAD8AD19BF
:101610002026019A9E425241C2722000FFF7A2FE8C
:10162000061E16D1134F3B689B6800930F23228838
:1016300021691A40520111330098FFF757FD002825
:101640009CD0012613E02000FFF710FF0028EDD00A
:101650000600032E0BD163680326DB7A002B06D12C
:10166000042604E00829D2D10A000331C9E730007A
:10167000FEBDC046C00500100022F0B5504B8DB035
:1016800006001A60904200D197E0FFF7CBFD0123DE
:10169000184005000220002D00D08EE003AF290085
:1016A0003800FFF713FF012814D1DF221023520066
:1016B00029003800FFF71AFD002801D001207CE046
:1016C0003B79002B01D1072077E0059D38002900E8
:1016D000FFF7FCFE0328F1D00028F4D124230D22CB
:1016E00029003800FFF702FD0028E7D1BC7A7B7A99
:1016F00024021C430ED102AB1B30C0184378017882
:1017000084781B020B4324041A002300C47813437B
:1017100024061C43FB78B8785C437B7800021843AE
:1017200039782D18356171707A793B7912021A4334
:101730006B4601929B88B380FB79BF791B023B43C8
:101740000ED102AA17339B181F78BC4662465F78F9
:101750003F0217439A78DB78120417431B063B437A
:10176000019A181A1709001BC01B06F00BFF154A37
:101770000230F0600123904204D9134A82429B4117
:101780005B4202333370032B0ED102AA20339B1825
:101790005A7818781202024311009A78DB78120402
:1017A0000A431B06134300E0631900207361ED191F
:1017B000034B2C19B461B0701E600DB0F0BDC04673
:1017C000C0050010F60F0000F6FF000070B5164BC4
:1017D00001001C6890B00620002C23D00023A370C9
:1017E0006B4608ADA56003A80493FFF7ABFE002885
:1017F00018D12B780330002B14D01023EE7A1E4022
:1018000010D16B7D297D1B02EA7E0B431904AB7E50
:10181000120213430B4363620F9B300023620123C8
:10182000E661A37010B070BDC00500102F4BF7B576
:101830001C68002307000D000192138006209C42C3
:1018400053D0A3780138DB074FD5236AE2699B1A8E
:101850008B4200D29DB20097002D45D0E669F3057A
:101860001BD1700A617806F013FF00290BD1002EFE
:1018700001D1606A02E0A06AFFF796FD01282FD926
:101880000023A062E370A06AFFF75CFD002827D068
:10189000E3785A1C1818E270E062E3692E1CDA053E
:1018A0008023D20D9B009B1A9BB29D4200D91E1C27
:1018B000B6B2381E00D000983300E16AFFF716FC7C
:1018C00000280DD1E369AD1B9B19E361009BADB20C
:1018D0009B190093019B1B88F618019B1E80BBE798
:1018E00000230120A37000E02800FEBDC005001009
:1018F000294BF7B51C680623002C4AD0A278013B7F
:10190000D20746D5256A854200D905000022E36941
:10191000E261954238D066787602002B12D0310011
:10192000681E5F1E06F02EFE31000190380006F0A2
:1019300029FE019B834205D373423B40E361ED1ACC
:10194000A06A01E0606AA062B5420CD9FFF72CFDE5
:1019500001281BD9E368984218D2E369A0629B1959
:10196000E361AD1BF0E7E3695B19E361FFF7EAFCB4
:1019700000280BD06B0ADAB2ED0501D1E27003E06A
:101980000132C318E270E362002302E00023A37077
:1019900001331800FEBDC046C005001030B5154B20
:1019A00004001B688DB00620002B20D004AD9D6084
:1019B00001AB63602000FFF7C5FD002815D12B782F
:1019C000002B0FD0EB7ADB0601D404200FE06B7DF7
:1019D000297D1B020B43EA7E1904AB7E12021343DE
:1019E0000B43A3602000FFF7BDFC0328EDD00DB032
:1019F00030BDC046C005001010B513000A0001003C
:101A0000014800F003F810BDD7B701000FB404B0CF
:101A10007047FFFF036870B504000D00013304D167
:101A2000242206490648FFF7E7FF6368002D01D02E
:101A3000E26800E02269136070BDC04688A2000021
:101A4000D2A2000070B50D000400160000F098FB53
:101A50006B1C07D00021200000F0BAFB31002000F1
:101A600000F0B0FB70BD10B50122FFF7EBFF10BD19
:101A700070B50D000400160000F082FB6B1C0BD04B
:101A800031002000FFF7C6FF0121200000F0A0FB7D
:101A90000021200000F096FB70BD10B50022FFF77A
:101AA000E7FF10BD10B50400034B083303601C3082
:101AB00000F068FC200010BD08B8010010B504005B
:101AC000FFF7F0FF200000F067FA200010BDFFFFD5
:101AD000036810B50400013304D12C2205490648DF
:101AE000FFF78AFF636960681B681840431E9841CE
:101AF00010BDC04688A20000D2A2000070B505004B
:101B000004000E4B0E00083308C5280018220021DF
:101B100006F025FC002320003100E36123626363AB
:101B2000A363E364064A23001C3000F0C9FB2800CD
:101B30003100FFF798FF200070BDC04608B80100D3
:101B4000A91B000010B50430FFF7C2FF10BD030051
:101B50000A0010B51C300121002A04D01A620022AC
:101B60005A630132110000F021FC10BD030010B5D2
:101B70000A001C30002903D000229963DA64013284
:101B8000022100F013FC10BD436910B50100002BC9
:101B900004D10368002B06D0984704E000680028B1
:101BA00001D00431984710BD10B5012903D0022996
:101BB00004D1383000E02030FFF7E6FF10BDFFFF12
:101BC00010B50400431C12D00B685A1C0CD09C4268
:101BD00008D12000896800F00FFC0021200000F0EF
:101BE00027FC04E00C31EFE70148FFF70FFF10BDC1
:101BF00018B8010010B5030088420AD00B00421C3F
:101C000007D003004A1C04D00348FFF7FFFE01235E
:101C10005B42180010BDC04629B801000B685A1C71
:101C200005D0834201D1486802E00C31F6E7180084
:101C30007047FFFF10B50400431C07D0FFF7EEFF0D
:101C40000400431C02D10248FFF7E0FE200010BD53
:101C50003AB80100074A13681818EFF30881884260
:101C600005D30C220120044B40421A6001E01060B1
:101C7000180070470C010010CC500010064B10B536
:101C80001B680400002B00D09847044B1B68002BF6
:101C900001D02000984710BD100100101C01001059
:101CA000094B10B51B680400002B04D0984700288E
:101CB00001D1FFF7E3FF054B1B68181E00D09847C2
:101CC000002C00D0206010BD14010010180100107D
:101CD000704710B5040000F05FF9200010BDFFFF51
:101CE00073B504000E480025083020600820E0602D
:101CF0000C48261D6061069865602572256100907C
:101D0000300000F00BFD2B0030002269E16800F08C
:101D100085FD3000616900F0B7FD200076BDC0464A
:101D200078B8010040420F0070B5094D04002B68DF
:101D300083420BD0061D0269C1680023300000F009
:101D40006DFD6169300000F09FFD2C6070BDC046E4
:101D5000C40500100261002210B5034BC1601A6077
:101D6000FFF7E2FF10BDC046C4050010002210B509
:101D7000024B41611A60FFF7D7FF10BDC405001088
:101D800070B50D000400FFF7CFFF2900201D00F003
:101D9000BFFD70BD036870B5DB68040098476368D9
:101DA0005A682368002A02D19B68984713E05B6851
:101DB0001568984763682D1A5A68002D07DC9168EA
:101DC00059601B68002BEAD050689847E7E7236802
:101DD00010681B69984770BD10B50248FFF7DAFF1D
:101DE00010BDC046A0B8010070B5040000F0CCFDE5
:101DF000050000F0C9FD401BA042FAD370BDFA23D4
:101E000010B59B005843FFF7EFFF10BD70B50A4CAB
:101E1000A568A3682A00002B0AD180225E595205CA
:101E20009A1804331660C02BF7D180225205A260A5
:101E300010308000815070BD00ED00E07FB5802043
:101E40003F494002CA6F8E240243CA672322002002
:101E500020253C4B3C499A60223A0A603B49A40049
:101E60000A60186219593A4A114001910199A9432F
:101E7000C825019101992D02294319510090354837
:101E80000099814204D8C046009901310091F7E7DA
:101E90000121002019645964586459645C6C294814
:101EA0000C42FBD08E218026C825890044582D0283
:101EB00014400394039C34430394039C2C434450E8
:101EC00023248460445822400292029CB44302942A
:101ED000029A2A4342500120DC681A490122044236
:101EE000FAD00320086700204A67486710004A6755
:101EF0005C6F144A01210442FAD08E209167800061
:101F00001558154C2C4014501558144C2C40145096
:101F100000209164D164D064D164DA6C0A42FCD0B0
:101F20002321084A1161012259691142FCD0002283
:101F30000B4B1A601A600B4B01321A607FBDC04612
:101F40000480044000800440F0400440F440044019
:101F5000FF250000C3090000FFFBFFFFFFFEFFFF9E
:101F6000C0800440C8800440704770477047704785
:101F70007047002310B5934203D21C585C500433C1
:101F8000F9E710BD00231A008B4202D21A50043325
:101F9000FAE770470020704710B506F0CDF910BD84
:101FA00013B501210F4B9A68120B12039A60027845
:101FB0009C6891402143996099680B48014399605E
:101FC00018690849019001980028F9DA083292004E
:101FD000535801938B685B005B088B600198000489
:101FE000000D16BD00C001400000088470B5060059
:101FF000FFF7D6FF04003000FFF7D2FF05003000E6
:10200000FFF7CEFFAC4202D923002C001D000300D5
:10201000A84200D92B0020009C4200D2180070BDBD
:1020200073B50C00214D060029002000FFF702FEC9
:10203000C0B23070FF2804D135221D491D48FFF77A
:10204000DBFC20002900FFF7BBFD80221A4BE405D2
:10205000E40DE418236819499343B9322360FF3231
:102060008858174B034010200193019B8343C820DD
:102070000193019B000203438B508021114A890187
:10208000D36F0B43D367104B1049186806F07AFAE8
:102090008023DB051A000138C0B20D4918430860DF
:1020A0000B681340FCD10A4A136073BD0CB90100E0
:1020B000A8B80100F3B801000040044000800440CB
:1020C000FF250000048004402001001020A107002B
:1020D00000C0014010B5FFF789FF07F0A9FB0249D6
:1020E00007F0A2F810BDC0460108803910B5040001
:1020F000431C04D11E2217491748FFF77DFC174BDC
:102100001A68002A06D101321A60154A1549D36FA0
:102110000B43D3670122002C12D0134B9C420FD0EB
:10212000124B9C420CD0124B9C4209D0114B9C424A
:1021300006D0114B9C4203D0104BE1184A424A4151
:102140002000110000F058F90120A404E40EA04082
:1021500010BDC046A8B90100D7A20000D0050010EC
:102160000480044040000100281400002C160000E8
:1021700030180000341A0000381C0000C4E1FFFFD2
:1021800070B505000C0029604B1C11D00800FFF74A
:10219000ADFF2414074BA400E318EB60064B686006
:1021A000E3182B61054BE3186B61054BE418AC6039
:1021B00070BDC046002200A0802200A0002100A027
:1021C000002000A010B5006800F032F910BDFFFF3C
:1021D000036870B504000D00013304D1432209499E
:1021E0000948FFF709FC002D06D0012D09D1A2688E
:1021F000636811680B4303E0A268616813688B434E
:10220000136070BDA8B90100D2A20000F7B501218A
:102210000D008540134C636A2B4221D0124B86007F
:10222000F058019300281BD023682B4218D1636813
:102230002B4206D0E3692B4203D00C4B1B68984716
:10224000E5612369074F2B4209D03B6A2B4206D038
:10225000064B019A1B680221905998473D626562BE
:10226000F7BDC046004000A0D8050010D4050010FE
:1022700010B50020FFF7CAFF10BD10B50120FFF711
:10228000C5FF10BD10B50220FFF7C0FF10BD10B58F
:102290000320FFF7BBFF10BD10B50420FFF7B6FF0A
:1022A00010BD10B50520FFF7B1FF10BD10B5062019
:1022B000FFF7ACFF10BD10B50720FFF7A7FF10BD5B
:1022C000F7B505002748814202DD0120404248E081
:1022D0002548264C02600020820016590096002EE8
:1022E0003BD11351224C2860E36F224F224E3B43D7
:1022F000E3671F248B0349120C401821A4460400F5
:102300009B0F59435E346144A400A15181210124F3
:10231000890071589B000F00210081400F43390054
:102320008127BF00F151A021802609065B18B60164
:1023300099592700019161468F40019940B2B943F4
:1023400099510E4BD158FFF761FD1F222B68009861
:1023500013409C400A4B1C6003E001300828BBD1AD
:10236000B3E7FEBD13110200D4050010D80500101C
:10237000048004408000090000800440F0B901009E
:1023800000E100E000210368064A9B0010B5995067
:10239000012281210068044C8240890063589343E4
:1023A000635010BDD8050010008004400368012070
:1023B000984070B50F4C2368034200D16062C5435A
:1023C00026680C4B2E402660012909D1002A03D033
:1023D0005A68104358600CE05A6815405D6008E088
:1023E000002A03D01A691043186102E01A691540E7
:1023F0001D6170BD004000A070B504000D00431CBD
:1024000004D1152207490848FFF7F6FA074BE405FF
:10241000E40DE418072322681D409A431543256004
:1024200070BDC04610BA0100D7A2000000400440B1
:1024300070B504000D00431C05D11D220F49104842
:10244000FFF7DAFA06E081231B01984214D00D4B06
:10245000984211D00C4BE405E40DE4182368042DD8
:1024600004D18022D2001343236005E01822ED003E
:10247000934315401D43256070BDC04610BA01004E
:10248000D7A20000140A00000040044070B50D1CE3
:1024900004680021281C06F03BFA002809D1FE211F
:1024A000281C890506F048FA002803D0FE25AD0552
:1024B00000E0002580239B00E058013007F0B8F9C8
:1024C000291C06F0B1FE06F097FA002808D08123F7
:1024D00004229B000138E05063689343636004E08A
:1024E0000C22636813436360206570BDF7B58026D6
:1024F0000468B600A3590A00019381239B00E758A2
:10250000194B1868CB17002106F04AFA174A002326
:1025100006F026FA0500781C07F08AF9019B071CD3
:10252000581C07F085F9011C381C06F0B3FC071C89
:10253000280007F07DF9011C381C06F075FE06F036
:102540005BFA013DA551002808D0812304229B009D
:102550000138E05063689343636004E00C226368D1
:10256000134363602065F7BD2001001040420F0057
:10257000F7B50F00060040493800FFF75BFBC3B218
:102580000500FF2B02D13D48FFF740FA3C4B0121EB
:102590001A78019310000840031E03D00A410B0073
:1025A0000A4262D1012421009940019A35481278EB
:1025B00073600A4301990A70334A99008A580933B3
:1025C0003260C26F1100802212061143C1672000E1
:1025D000984003002D4A28495268380013432B4A7B
:1025E0005360FFF7EDFA336829491A68E8B20A43E5
:1025F0000C211A605A680A435A6007281DD805F052
:10260000ADFF040A1016040A1016A022D2009C5036
:102610000221204A10E0A122D2009C5002211E4A31
:102620000AE0A222D2009C5002211C4A04E0A3220C
:102630000221D2009C501A4A99508021C12249019E
:10264000920099500122C0215242890015485A50E7
:102650000C31585004395A5030001349FFF746FFE7
:1026600030000021FFF712FFF7BD1048FFF7CEF949
:1026700001235B4296E7C04658BA0100C4BA010084
:10268000F805001004800440F0BA01000080044006
:1026900001000600040500000C0500001405000000
:1026A0001C05000001100000204E0000DEBA0100F1
:1026B00080210A4AC905D36F80200B430121D367CB
:1026C000074B1A680A431A6000229A601A6802438C
:1026D0001A601A688A431A607047C0460480044032
:1026E00000400240024B18680006C00F7047C04609
:1026F00000400240014B98687047C04600400240CD
:1027000010B58024044B1968A143196098601A68B9
:1027100022431A6010BDC04600400240F0B5334E5F
:1027200087B0009104003100009801920293FFF7F6
:1027300081FA2F4D070029000198FFF77BFA2D49F8
:1027400003900298FFF776FA2B4904900C98FFF754
:1027500071FA039905903800FFF74CFA05990700C4
:102760000498FFF747FA01003800FFF743FA2060AA
:10277000431C04D1482221492148FFF73DF9236831
:10278000204A93420FD0204A934219D180201F49FA
:10279000C002CB6F1E4A0343CB6701211D4B19605A
:1027A000536803310AE0802018490001CB6F184AB2
:1027B0000343CB670121184B196053680B435360E7
:1027C00031000098FFF7FCF929000198FFF7F8F9AC
:1027D00008490298FFF7F4F90C9B013303D006492E
:1027E0000C98FFF7EDF907B0F0BDC0463CBC010006
:1027F000F8BA010034BB010078BC01007CBB0100C9
:10280000C2BB010000000440008005400480044079
:10281000008004409C80044094800440F8B50E0081
:102820000221140002681D00536807008B435360A7
:10283000331F0C2B06D9032C04D9652210491148EB
:10284000FFF7DAF88023E0010340013E1E43A307AF
:1028500034003968DB0F0A689B01120C12041C4318
:1028600014430D220C604B6893436A1E954102226B
:10287000AD001D434D604B6813434B60F8BDC0462F
:102880007CBB0100D6BB0100F7B5022405000E0099
:1028900002685368A34353601A4B1B6801932100DD
:1028A000019805F06FFE06F0C3FF071C300006F02C
:1028B00077FF011C381C06F0EDFAFC21890506F0B3
:1028C00073F907F063FC05F06FFC07F029FCFF28A3
:1028D0000FDC2B680C4A1C61196801380A40022180
:1028E0001A601A680002104318605A680A435A6056
:1028F00007E0802302345B009C42D0D10348FFF7FD
:1029000085F8F7BD20010010FF0000FF14BC010096
:1029100002220368D8681042FCD004229960D9686A
:102920001142FCD098687047104B70B51A68002AA5
:102930001AD1012580210E4A1D60D36FC9000B43B7
:10294000D3670C4B0C4C186802230C49636005F0EC
:1029500019FE0138E0600A4965601320FFF756FA56
:102960008022084B12031A6070BDC046FC0500109F
:1029700004800440200100100080014040420F000C
:10298000D91D000000E100E0044B10B51B68002BCE
:1029900001D1FFF7C9FF024B986810BDFC0500107C
:1029A000008001400121034B98615A690A435A6132
:1029B0007047C046008001400121024A53698B43A1
:1029C00053617047008001400122014B1A6070473B
:1029D00000800140704770477047FFFF10B5054801
:1029E000FFF778FB044906F01FFC06F005F8034BDF
:1029F000187010BD0106001000007F430006001093
:102A000010B5FFF7EBFF10BD10B502490248FFF704
:102A100007FB10BD5C2E00000106001010B503F08E
:102A2000B1F810BD70B50023FF2402250B480C4AF5
:102A3000C15C002906D0D15C0131C9B2FF2906D1A1
:102A4000D55407E0D65C002E04D0FF2E01D1D1541E
:102A500000E0D4540133072BEAD170BD4931001096
:102A600003060010034B185C013843425841C0B2C2
:102A70007047C04603060010002210B51D4B1978A0
:102A80001A701D4A5078002801D001201870D078A3
:102A9000002803D0022418782043187010780028EA
:102AA00003D004241878204318709078002803D0AD
:102AB00008241878204318701079002803D01024B7
:102AC0001878204318705079002803D020241878F3
:102AD000204318709279002A03D040201A780243CC
:102AE0001A701B78054A180008409943044B10706F
:102AF000197010BD02060010493100100B060010BD
:102B00000A060010014B18797047C0464931001081
:102B1000014B58797047C04649310010014B187875
:102B20007047C04649310010014B98787047C04645
:102B300049310010014B58787047C04649310010A8
:102B4000014BD8787047C046493100100023094A2C
:102B50001380094A1370094A1370094A137001223D
:102B6000084B52421A80084A084B1A600922084B47
:102B70001A70704712060010110600101806001097
:102B80000C0600100E06001074C801001406001098
:102B90001006001010B50248FFF7D8FF10BDC04660
:102BA0000D06001000234372FF3303727047F7B520
:102BB0000F000024E500280004F040FC3B7883422D
:102BC00004D00134302CF5D1FF2015E02B00002675
:102BD000083300937B1B0193280004F02FFC019B1A
:102BE0005B5D01351B1A58424341F618009BAB420E
:102BF000F2D1082EE5D12000FEBD10B50024E00082
:102C000004F01CFC002803D00134302CF7D1CF3461
:102C1000200010BD10B500206F2907DC8131FF3185
:102C2000080004F00BFCC043C0B2C00910BD70B571
:102C300000240600250021003000FFF7EBFF431EB3
:102C4000984101342D18702CF5D1280070BD70B555
:102C500005000C006F2901DD00200FE0FFF7DAFF0F
:102C60000028F9D120008130FF3004F0E7FB7F23FA
:102C700018402B7AC01A43425841C0B270BD70B59B
:102C800000240600250021003000FFF7E0FF431E6E
:102C9000984101342D18702CF5D1280070BD70B505
:102CA0000C0015006F2901DD002010E02F2AFBDC4D
:102CB000FFF7B0FF0028F7D120008130FF3004F08B
:102CC000BDFB7F231840401B43425841C0B270BD3A
:102CD000F8B5D5002E000F002C0008367B1B195DBF
:102CE0002000013404F0B3FBB442F7D1F8BD70B555
:102CF0000600002421003000FFF78CFF051E08D0DD
:102D000020008023317A81301943FF3004F09FFB8B
:102D100002E00134702CEDD1280070BD70B52F2970
:102D200000DD2F21CC0025000835200000210134D2
:102D300004F08DFBAC42F8D170BDF8B5060000245C
:102D4000E00004F07BFB00280ED0002522002900C3
:102D50003000FFF7A4FF002806D10135702DF5D112
:102D600021003000FFF7DAFF0134302CE8D1513474
:102D7000FF347F252600200004F060FBA843C0B28A
:102D800000280BD00027380004F058FB011E05D1A5
:102D90000837B742F7D1200004F059FBF82301347B
:102DA0005B009C42E7D1F8BD70B5437A0500002B6B
:102DB0000AD0047E6F2C0BDC21002800FFF747FFB0
:102DC000002804D10134F5E70120404200E0200052
:102DD00070BDFFFF70B50400007E104B4001020083
:102DE0006069F132FF32184004D5202301385B427C
:102DF00018430130101804F021FB6369050001330A
:102E00006361DA0608D1002B06D0237E200001334F
:102E10002376FFF7C9FF2076280070BD1F000080D1
:102E2000002370B5427A04009A4202D006699E429D
:102E300001D100200FE043610376FFF7B5FF3500B5
:102E40002076E268AB1B9A4205DD2000FFF7C2FF47
:102E500028700135F5E770BD10B50400007E0F4BFA
:102E6000400102006069F132FF32184004D520238E
:102E700001385B4218430130101804F0E8FA636926
:102E800001336361DA0608D1002B06D0237E2000CF
:102E900001332376FFF788FF207610BD1F000080E6
:102EA000002370B5427A04009A4215D006699E420A
:102EB00012D043610376FFF777FF35002076E26892
:102EC000AB1B9A4205DD29782000FFF7C5FF0135CD
:102ED000F5E7012004F0E0F8002070BD70B50100B6
:102EE0000400C568FFF763FEC0B220722F2825D802
:102EF0002000FFF7C4FE40012D1A002D05DC012340
:102F000020006372FFF78CFF2FE02000FFF7EFFE39
:102F1000002801D1022034E0203D002DF5DC012302
:102F2000217A63722000FFF7F9FE2000227A210047
:102F3000FFF7CEFE2000FFF7B3FF16E02000FFF7FB
:102F40005CFEC3B2237201202F2B1AD82000FFF79A
:102F50006EFE40018542DDDC002D06DD2000FFF71E
:102F6000C6FE0028D6D0203DF6E70123217A637201
:102F70002000FFF7D3FE2000227A2100FFF7A8FEF1
:102F8000002070BD13B504000020193A1933E26027
:102F9000236120220300607268461A540133082B13
:102FA000FAD10023CA5C002A04D06846C254013317
:102FB000082BF7D12000FFF7C0FE08226946200049
:102FC00005F0C4F92000FFF789FF002016BDFFFFC0
:102FD00037B572B600210422244B8025596019614F
:102FE000234BED001A608E22224B92009C582C43FA
:102FF00080259C509C586D002C439C5001225A67A0
:103000001400596719004B6F1A4D01222340FAD161
:1030100014002B676A676B674B6F164A2340FBD11E
:103020008E245364516CA400936013675360155948
:10303000114929408025019101992943C825019111
:1030400001992D0229431151A022842112068901E0
:1030500053500A4953500A4953500A4B9860001C78
:1030600001688D464068804737BDC046004000A0DB
:1030700010E000E000800440FF2500000421000073
:103080000821000000ED00E07047FFFFF0B5C1B07F
:103090000E0000F0A3FE00F0ADFE8023DB029B1BC0
:1030A0000400984200D91C0000F08EFE80271348CF
:1030B00001F0F8FF00257F00A5421CD28021684660
:1030C000490000F065FEFF2804D8631BBB4201D90C
:1030D0000B4806E0A819694604F0FEF8002804D061
:1030E000084801F0DFFF012006E001350648FF3502
:1030F00001F0CCFFE0E7002041B0F0BD22CC0100A0
:103100002ECC010049CC01009BCC0100F7B5012673
:103110000024514B514D1E70514B1C80FC23DB0091
:103120002B8000F0D1FE2100200000F0FDFE3000D9
:1031300001F000FF0094019400F0E2FD04214948F1
:1031400000F000FEA0420FD100F048FE08204042EF
:1031500000F026FE0421684600F01AFE042101A8B2
:1031600000F016FE00F030FE01273F4E7F423F4C3C
:103170002368B34200D03E4C2368B34200D03D4C9C
:103180002368B34200D03C4C2368B34217D02023BD
:103190003A485B422B8001F085FF009B002B03D057
:1031A000374B019A9A4240D8364801F07BFF3648A7
:1031B00001F078FFFC23DB002B80344820E0344B07
:1031C00034482B8001F062FF0A2160682F8001F0F3
:1031D000E8FF6368009A934227D3A068FFF7F8FEE0
:1031E00017E0FFF7ADFC002834D1FFF7A3FC00285F
:1031F000F7D001990098FFF749FF002826D026480C
:1032000001F050FF05E0FFF737FCFFF77BFC0028DB
:1032100004D1FFF777FC0028F5D01BE0FFF772FC24
:10322000002817D0FFF728FCF8E71C4B1C482B8020
:1032300001F02CFF00980A212F8001F0B2FFFC233F
:103240001848DB002B8001F02DFFCEE7164801F077
:1032500029FF8CE7F7BDC0462E01001026010010A3
:10326000022F00100FCD01001EAB07B0F4FF0300CA
:1032700004FF030004FE030004F0030017CD010067
:10328000FF7F03002BCD010007B8010042CD0100F4
:10329000FF0700005DCD010067CD01001FF8FFFFB3
:1032A0008DCD0100A1CD010083CD0100F8B5002432
:1032B000012001F03FFE484BFC271C8000F004FE7B
:1032C000464D474B47482B8001F0C8FD0123464E31
:1032D00030213370454BFF001C70454B60201C7043
:1032E0002F8001F0E5FE434801F0D0FE3821602038
:1032F00001F0DEFE404801F0C9FE4021602001F0EF
:10330000D7FE3E4801F0C2FE4821602001F0D0FE09
:103310003B4801F0BBFE6021282001F0C9FE39487E
:1033200001F0B4FE013C38482C8001F0AFFE374874
:103330002F8001F0ABFE022335482C80337004F05F
:103340007DF803190434042B00D8040004F0A0F81D
:1033500085B2002C38D0FFF78FFB7821682001F070
:10336000A7FE0A21200001F0F3FE04F091F8FA23F1
:103370009B00EB18984203D904F08AF8013C85B20F
:1033800002F0A2FC002808D002F09EFC041E02D02D
:10339000FFF772FBF8E7FFF7B9FE02F089FC00289F
:1033A00007D002F085FC002802D0FFF765FBF8E7A4
:1033B000040002F083FC0028CBD002F07FFC002840
:1033C00002D0FFF759FBF8E70123337000F07CFDD2
:1033D000002001F0AFFDF8BD022F00102601001003
:1033E00000F8FFFF1CC301002E0100102501001092
:1033F00028010010C6CD0100CBCD0100D0CD0100C9
:10340000D5CD0100DACD0100E0CD0100E4CD010011
:10341000A20F0000F0B5984D1E002B888BB0040061
:10342000049109935711002E06D0002032230090FA
:103430001A00010000F06CFD6A461021525E8E4BAE
:10344000029222B20392032F02DCFC22D20022E07D
:10345000042F1DD120235B422B80002E00D102E1DE
:1034600001F060FD0500012001F064FD02F008FAA2
:10347000049902001439601EC9B20A23C0B201F0D7
:1034800077FE7E4801F002FE280001F053FD05E0C2
:10349000042F01DD7A4A1A80002EE1D1002F02DCD0
:1034A000784A754B1A800123774A00930299039852
:1034B00000F044FD012F02DC724A6F4B1A80A3B268
:1034C0001D000126704C08352DB2039322003300F5
:1034D00002992800009600F031FD6B461B8A2200FD
:1034E0000493043B1BB20593009633000599280012
:1034F00000F024FD022F02DC624A5F4B1A80012596
:10350000039E2B00103636B222000299300000953F
:1035100000F014FD2B00220005993000009500F00A
:103520000DFD049B0095083B1BB2069322002B0067
:103530000699300000F002FD032F02DC514A4E4B89
:103540001A800124039D504E18352DB223003200FD
:1035500002992800009400F0F1FC23003200059944
:103560002800009400F0EAFC2300320006992800AD
:10357000009400F0E3FC049B00940C3B1BB2079307
:10358000320023000799280000F0D8FC042F02DC49
:103590003C4A394B1A800124039D3B4E20352DB205
:1035A0002300320002992800009400F0C7FC230099
:1035B000320005992800009400F0C0FC230032007E
:1035C00006992800009400F0B9FC23003200079906
:1035D0002800009400F0B2FC049B0094103B1BB246
:1035E0000893320023000899280000F0A7FC052F5B
:1035F00002DC244B204A13800125039C224E2834F0
:1036000024B22B00320002992000009500F096FCB5
:103610002B00320005992000009500F08FFC2B0054
:10362000320006992000009500F088FC2B00320043
:1036300007992000009500F081FC2B0032000899CA
:103640002000009500F07AFC04992B001439320018
:1036500009B20095200000F071FC6A46064B928C7E
:103660001A800BB0F0BD0123074A0093029903981A
:1036700000F064FC23E7C0462601001073CE010071
:1036800000F8FFFF8A5200000FD40100F0B50120BE
:1036900087B001F04FFC0022A14B1A7002F0F0F845
:1036A000FA20000103F0CAFE040006F0C1F89D4BA9
:1036B0009D491C80051C05F03FF9002801D0FF2022
:1036C00000E07F2002F0C8F8FA21281C890505F0E7
:1036D000ABFD06F043F800B202F078F8FC21281C9C
:1036E000890505F0A1FD06F039F800B202F06EF888
:1036F00020B202F06BF800228C4B64111C708C4BD2
:103700008C481A7003F09AFE431E0400092B00D95E
:10371000894C03F0BDFE83B204930123FC271D00F6
:103720000393FF00854B1B78002B00D1D5E0002DC3
:1037300000D1D2E0002C00D1CFE003F0A9FEFA22A4
:10374000049B92009B18984208D903F0A1FE83B213
:1037500004937B4BE3185A1E9341E41A012D03D0C6
:10376000022D00D198E0DDE7039B764D002B32D08F
:10377000012600F0A9FB7642102120202E8000F0C7
:10378000D3FB714801F082FC9921282000F0CCFB8A
:103790006E4801F07BFC6E482F8001F077FC6D488D
:1037A0002E8001F073FC582100202F8000F0BCFB1C
:1037B000694801F077FC694E300001F073FC30007D
:1037C00001F070FC300001F06DFC300001F06AFC8B
:1037D000634801F067FC9921302000F0A5FB534EAF
:1037E0003378032B02D801235B4200E05D4B2B8032
:1037F00002235D4A00933021013BA42000F09EFB90
:103800003621182000F090FB584801F03FFC1820AA
:10381000422100F089FB33785548032B00D85548E6
:1038200001F034FC0223544A2F8060210093A4202D
:10383000013B00F083FB6621182000F075FB4F4828
:1038400001F024FC7221182000F06EFB02F018F841
:103850007F2802DD434B2B8000E02F80334B394D16
:103860001A78042A02D1243A2A8003E0072A01D1D7
:10387000013A1A7018780A2101F06AFC404801F0F8
:1038800005FC2F8001F0FCFF00230200772170204F
:10389000FFF7C0FD022545E7FFF7EEF8FFF7C2F896
:1038A00002F006FA0590002801D000253AE728002A
:1038B000FFF7D8F8061E05D001F0A0FF059B1E4CAF
:1038C000039308E0FFF7CEF8002800D12AE71A4C4E
:1038D00001F0ACFF0396012524E701F0D1FF0400BD
:1038E000FA20000103F0AAFD0600200005F0A0FF69
:1038F000051C300005F054FF011C281C05F002F8DF
:10390000002804D1FA20E1B2000103F0A0FD20B2AA
:1039100001F05CFF0021080000F006FB07B0F0BDDD
:1039200025010010242F00100000FE425C2F001023
:1039300023060010A30F0000FFFF00002106001067
:103940000100FFFF26010010EFCD010008CD0100AE
:1039500003CE010005CE010010CE01002BCE0100E8
:1039600046CE010000F8FFFFCBD30100C3CC01001D
:1039700061CE01006BCE0100EDD3010076CE0100D7
:1039800073CE0100012210B5084B00201A7001F01F
:10399000D1FA074801F062FA03F06AFD03F08EFDE8
:1039A00002F0F0F803F07AFD10BDC04621060010C9
:1039B000B4BC0100014B18787047C04621060010C6
:1039C000F7B50024FC2725005826FF00292D48D8EC
:1039D00003F05EFD234B1A689042F7D91E30186041
:1039E000012D0BD0002D02D0022D22D035E01E4B30
:1039F00028001D8000F076FA01252EE0FC21E2B2BD
:103A0000C900002001F0FAFB184B194A18806E23F8
:103A100051781078490840081C34181A711A00951A
:103A20002B00A4B200F08AFAFE2C16D9002402253D
:103A300013E00E4B0E4A1F806E2310785178400819
:103A4000181A49086D3B0093711A00F077FA3F3459
:103A5000084BA4B29C4200D9FF25FFF753F8002879
:103A6000B4D0F7BD103C0010022F0010260100104A
:103A7000C1CE0100FF03000010B57F2001F0ECFE75
:103A80007F22034B1A80034B80321A7010BDC04650
:103A9000242F001020060010F7B5FFF773FF322225
:103AA0000127FF24314B1A70314B1F60314B1C70C2
:103AB000FFF7E2FFFEF78EFF20000024FEF78BFFEA
:103AC000FEF7ACFFFEF7AEFFFEF79AFF00F027FA15
:103AD000FFF776FF380001F02DFA274E348000F012
:103AE000F3F9264D280001F0B9F9380001F022FA67
:103AF000FC22234BD2001A80348000F0E5F9280024
:103B000001F0ACF91F4E204D34702F70FFF7CEFB43
:103B1000FFF7BCFD00F0E0FCB02322000093210081
:103B20002C33200000F02EFD184B1C79002C02D005
:103B3000FEF778FFF8E7200001F0FCF90123144AB2
:103B400014481370144A33702B70137001F086F907
:103B500001F082FBFEF742FF0520FEF783FF0028FD
:103B600002D0200001F032FEF7BDC0462206001050
:103B70002806001020060010022F00101CC30100B0
:103B80002601001025010010280100100306001076
:103B90002E010010B8BF01002A010010F0B51F4B24
:103BA00085B01A780393002A36D000240B2A02D855
:103BB0000C239C1AE4B20127194B0020AD251F707D
:103BC00000F014FD0322174EA4B231780020CB1C64
:103BD000691A61180092513201F003F9380000F0BF
:103BE00005FD032231780020CB1C691A6118009270
:103BF000513201F090F804220B4B1A803378E41A0A
:103C00000A4BAF341C800A4B186801F03FFA039B43
:103C1000039A1B78013B137005B0F0BD3406001009
:103C20002E010010782C0010FC2E00108C2E00109D
:103C30002C060010F0B587B005930CAB03910492ED
:103C40001F78060003F024FC194B1A491B780A68F8
:103C5000194C121A9A4212D92268002A0FD0174A18
:103C6000C3180B6013680125013313600023236020
:103C7000FEF7B2FEFEF7D6FEFEF7B0FE14E000251A
:103C80002368AB4210D101F02BFC01F093FC01F052
:103C900091FDFFF783FF059B0097049A039930007D
:103CA00000F070FC01232360280007B0F0BDC0467F
:103CB0002206001030060010280600101C06001016
:103CC00010B5024801F0DCF810BDC0462406001013
:103CD000A0228023802012069B01D158800001433E
:103CE000D150D1580138FF380143D150D158C03894
:103CF0000143D150D15840300143D1507047FFFFAC
:103D000010B5FFF7E5FFFDF78DFA094C2070094863
:103D1000FDF7B2FC084920700848FDF73FFE084B4C
:103D200020700022002800D101221A7010BDC04668
:103D30008F0600103806001007B80100900600102A
:103D4000A406001070B50F4D06002B780C00102B48
:103D50000BD030002C70FDF739FD041E0DD1310061
:103D6000094804F0F1FB20000AE00848FDF784FC54
:103D700003000120002BECD002E0082301202B706F
:103D800070BDC046240100108006001038060010E7
:103D900013B56B469C1D2200FDF748FD208816BD1B
:103DA00010B5074B002804DADA6941428A4200D292
:103DB0005042DB69C018FDF79BFD024B187010BD27
:103DC000380600108F06001010B50020FDF790FD9A
:103DD000014B187010BDC0468F060010034B10B584
:103DE000186AFDF785FD024B187010BD38060010EB
:103DF0008F060010014BD8697047C0463806001086
:103E00000123812213B5074C5B4200935201064BFC
:103E100006492000FDF764FF054A06492000FEF729
:103E2000B9F813BD68060010180C00002412000039
:103E300000010010D11C00007047FFFF10B51300F7
:103E40000324134A23401278921051438210891898
:103E5000104A89B21268204051180A78A04202D153
:103E600082431A4311E0022804D10A308243100031
:103E70009A0009E0012804D12F30824310001A0172
:103E800002E03F2010409A0102430A7010BDC04674
:103E90002F0100107C2C0010084B10B51B8893429A
:103EA0000BD0074B1C7883B29C4206D9054B1C787B
:103EB0008BB29C4201D9FFF7C1FF10BD3001001049
:103EC0002F0100103201001010B5002001F0EEFFAC
:103ED0000023024A1380024A138010BDFC2E0010FA
:103EE0008C2E001010B501F0E1FF10BD064B10B58F
:103EF0001B880F2B04D8054C5B001B5B934201D041
:103F000002F040F910BDC04630010010802C0010B6
:103F100013B504AC2488009402F064F913BD10B505
:103F200002F024F810BDFFFF024B1880024B1980ED
:103F30007047C046FC2E00108C2E0010F0B58FB0DC
:103F40000B9114A909780A9008911178059151787C
:103F5000023209910092012B76D1059B0733DB10C9
:103F60000C936B461B8D07930493002303936B46BE
:103F70000C21595E059B8B4200DCF0E00723CA1739
:103F80001A405218D21053B20A93764B0B4004D504
:103F90000822013B52421343013380221BB21A41D3
:103FA0006B469B8D0D9206930293002301936B4603
:103FB00004229B5E099A93423EDA0C9A0A99534373
:103FC000009A5218D35C0D9A1A422DD0089B664C69
:103FD000012B09D1069B019903985918079B228848
:103FE000181809B200B21DE06B461027DF5F6B4660
:103FF00008269E5F228831003800FFF777FF049B78
:1040000031005D1C2DB222882800FFF76FFF029B54
:1040100022885E1C36B231003800FFF767FF31009E
:1040200028002288FFF762FF019B01330193029B66
:1040300002339BB20293BAE7039B01330393049BC1
:1040400002339BB2049392E7042B00D087E0002355
:10405000099A934200DB82E09BB202936B469B8DF0
:1040600000250793029B079A5B00D3189BB21AB2F4
:1040700001331BB204936B461B8D0392069301938D
:10408000059BAB4267DD009B384A1B7812681B1109
:104090005B009E5A089B022B19D1069B6C001C19D1
:1040A000A4B227B2013432000399380024B2FFF7DA
:1040B0001DFF320003992000FFF718FF320004991A
:1040C0002000FFF713FF32000499380007E0029B3D
:1040D000079A99186B4632000420185E09B2FFF760
:1040E00005FF0F22009B1B781340204A5B001268DB
:1040F0009E5A089B022B1AD1069B6C001C19A4B275
:10410000A71C3FB2033432000399380024B2FFF7F2
:10411000EDFE320003992000FFF7E8FE320004991B
:104120002000FFF7E3FE32000499380007E0029B0D
:10413000079A99183200019B09B2581C00B2FFF788
:10414000D5FE009B023501330093019B2DB2023353
:104150009BB2019394E7029B01331BB278E70FB047
:10416000F0BDC0460700008026010010882E001018
:10417000F0B51300574A8DB014680F006278110033
:104180000192F72208390A40511E8A410199C9104B
:1041900052180892089922784A43511C4B431A003E
:1041A000A2181279053352B2099282B20B9206928A
:1041B0000022E31805926A46127D099952B2914293
:1041C00000DC7CE008991A78022903D001330793B8
:1041D00093B204E0991C5B7807911B0213430024FF
:1041E0000293059B0B9A5B00D3189BB21AB2013362
:1041F0001BB203920493019BA34257DD0122029B51
:10420000134217D0344B1B78022B07D16500ED19F0
:10421000ADB2324E2BB20A9332881AE06946304B67
:1042200018254D5F1A782D4B002A01D01A882BE0F3
:104230001A8830E02B4E2C4B32881B8893422FD0AB
:10424000254B1B78022B18D16500ED19ADB22BB2AE
:104250000A93190003980135FFF748FE2DB2328802
:104260000A990498FFF742FE328829000398FFF765
:104270003DFE32882900049810E06946184B182545
:104280004D5F1B78002B06D0019B2900581EC019DA
:10429000031B18B202E02800E11909B2FFF726FE5D
:1042A000029B01345B08029364B2A4E7059B0133CF
:1042B0000593069B01339BB20693079B7BE7002087
:1042C0000A4B1856099BC018034B1B7858430DB076
:1042D000F0BDC046942E00102E01001026010010E3
:1042E000002F0010022F00103001001025010010D7
:1042F000F0B513006D4A91B00290106806914278B3
:1043000011000192F72208390A40511E8A41019991
:10431000C9105218017807924A4301325A43531D7B
:1043200082181279C31852B20592029A6048002A84
:104330001DDB069A002A1ADB029A51185D4A127890
:10434000914214DA0199069A52185B4909788A4217
:104350000DDA5A4A00881188594A814200D0594AD8
:1043600059490C88564984420ED056490CE0534AAC
:1043700000881188524A814200D0544A52490C8820
:104380004F49844200D051490E914F490F920988FC
:104390000DAA11704949029D0988002751704C4AA5
:1043A0001278022A30D0029A0599AA1A52B2914282
:1043B00022DD079A1C78022A02D05F1CA4B203E017
:1043C0009F1C5B781B021C430026019BB3420FDB42
:1043D0000123069923400DAAD25C71180EA89B00F8
:1043E0001B5809B2280001369847640876B2ECE7FA
:1043F00001352DB23B00D6E70020364B1856059B01
:10440000C01850E0089B013705997AB2914244DD0B
:1044100007991A78022903D00133089393B204E074
:10442000991C5B7808911B021343029A04937B004A
:104430009B189BB21AB201331BB20B930023099253
:104440000393039A019B9342DCDB0122049B0998AE
:1044500013400DAAD65C9B000EAA9D58039B320008
:104460005C00069BE418A4B223B2190001340A933D
:1044700024B2A84732000A990B98A84732002100BD
:104480000998A847320021000B98A847049B5B08B5
:104490000493039B01335BB2D2E700200D4B185607
:1044A000059BC018400011B0F0BDC046942E00100E
:1044B000300100102F010010320100102C010010FB
:1044C000393E00003D3E0000902E0010993E000055
:1044D0002E01001025010010F8B5234A234D127853
:1044E0002B88234CD9B2234F234E012A03D1002B12
:1044F00031D0FF212FE0022A06D1032319408B007F
:1045000019430B01194326E0032A1DD101211B4A3F
:10451000194000D0FF21206803F021FF02232988E1
:10452000164A194023689818002900D0FF2103F08B
:1045300016FF0423298820681940114B0F4AC01820
:1045400000290AD0FF2108E0042A04D10B321340CD
:1045500009011943C9B20A4A206803F000FF002389
:104560003B803380F8BDC04629010010902E00101A
:104570007C2C0010FC2E00108C2E0010E812000085
:10458000D02500007FB5114D08AC2E682478002E90
:104590000AD003900E4802950068009401900D48DF
:1045A000006801F043FF09E0002807D108480068CF
:1045B000009401900748006801F078FE064B1B78D4
:1045C000002B01D1FFF788FF7FBDC0469C2E001055
:1045D000882E00107C2C0010842E001010B502488C
:1045E00000F0F6FD10BDC046F2CB010003231840D9
:1045F000014B18807047C0462C01001010B5074BC6
:104600001A7883B29A4208D9054B1A788BB29A422B
:1046100003D9044B1A78FFF711FC10BD2F010010CD
:10462000320100102C010010F0B585B00193130089
:104630000C00009200229A5E0021435E05009A421F
:1046400004DA2300009D019C009001930023EE5E9C
:10465000444B1B7802939E4201DB00277FE0002E33
:1046600015DA009B0021595E0029F6DB0023E75E86
:10467000019B891B0020185E7642C01B000404F0D9
:104680000BF8002370430014C71927802B80009B70
:1046900000269E5F029BB34215DC019B0027DF5F73
:1046A0000023E05E0023E95E381A711A000403F06B
:1046B000F3FF029B019A013B9E1B70430014C71934
:1046C0001780009A1380019B00229A5E0021635E8E
:1046D0009A4205DA2300019C01932B00009D009370
:1046E0000023E65E204B1B7802939E42B5DA002E33
:1046F00015DA019B0021595E0029AEDB0023EF5E35
:10470000009B891B0020185E7642C01B000403F04A
:10471000C3FF002370430014C7192F802380019B1F
:10472000012700269E5F029BB34218DC009B0022FB
:104730009B5E03930023E85E039B181A0023E15E4F
:104740000004711A03F0A8FF029B039A013B9E1B11
:10475000704300148018009A1080019A138038006A
:1047600005B0F0BD2F0100103201001070B50F4BE5
:1047700015001B788AB20600934202D8AAB293426F
:1047800012D90B4B1A78B3B29A420DD9A94202DD65
:104790000B0029001D000C00A54205DB21B23000F2
:1047A000FFF72CFF0134F7E770BDC046320100105F
:1047B0002F01001070B50F4B16001B7882B20D0050
:1047C000934202D88AB2934212D90B4B1A78B3B2F1
:1047D0009A420DD9A84202DD030028001D00040002
:1047E000A54205DB20B23100FFF708FF0134F7E7EF
:1047F00070BDC0462F01001032010010F0B589B025
:1048000006ACA61D07AC218006A90B803D4B8D1C74
:104810002A801A78308080B2904219D23A4B21888F
:104820001B78994214D22988914211D206AA128883
:104830009A420DD20023F05E0023E95E884210D137
:1048400006AB00229A5E0023E15EFFF78FFF56E081
:1048500006AB2A0021003000FFF7E6FE0028E9D170
:104860004DE00023E25E06AB00241B5F9A4202D1BA
:10487000FFF7A0FF43E005001600884203DD441A5D
:104880000121494201E00C1A012103919A4203DD02
:10489000D21A01235B4201E09A1A012301930023FB
:1048A0000293A24204DD230014001A0001230293A4
:1048B000530004931F1B6300059300230093009B88
:1048C0009C421CDB31B228B2FFF798FE002F09DBB7
:1048D000029B012B02D1039BED1801E0019BF6180E
:1048E000059BFF1A029B012B02D1019BF61801E0E8
:1048F000039BED18049BFF18009B0133DEE709B012
:10490000F0BDC0462F0100103201001010B5002A82
:1049100004DA92B25118524209B212B28A1812B293
:10492000FFF724FF10BD10B50B00002A04DA92B285
:104930001018524200B212B28218013A11B21A0093
:10494000FFF738FF10BDF8B5060014000F00CB18B4
:104950001DB234192A0024B2FFF708FF2A003900DB
:104960002000FFF703FF3A0030002100FFF722FF8D
:104970002A0030002100FFF71DFFF8BDF8B58218AE
:10498000CB1805000C0012B21BB2002801DA002A75
:104990002DDB174909788D4201DB914227DD002C80
:1049A00001DA002B23DB134909788C4201DB9942A1
:1049B0001DDD954202DC11002A000D009C4202DC44
:1049C000190023000C00161C002A00DA002636B25B
:1049D000191C002B00DA00210FB2AE4207DA3000BA
:1049E000220039000136FFF7C1FE36B2F5E7F8BD07
:1049F0002F01001032010010F0B5030085B000282F
:104A000079D03E4A1478A04201DB631E1BB23C4AB7
:104A10001078042807D13B4A11785943CA0F51181E
:104A2000491089B20AE0022865D10321354A12787B
:104A30005A43D51729408A18921091B2324A1588E4
:104A40000195324D2D8815802E4A002B28DD1278D5
:104A5000E31AD508684300252E0002900393039BB8
:104A60009D4216DA891B89B233008C466146981B39
:104A700080B207000298591889B2874205DA244F9C
:104A8000581C795CF95483B2F0E70135ADB21E00D1
:104A9000E5E7204923B20020095E12B2002024E09D
:104AA0001278A4B25043C010029000209DB203942B
:104AB000039CAC4216D9401A80B20C008446604672
:104AC000661AB6B23700029E001980B2B74205DA04
:104AD0000F4F661C385C3855B4B2F0E70135ADB203
:104AE0002100E5E70021080012B2FFF747FF6A4600
:104AF000054B92881A8005B0F0BDC0463201001007
:104B0000290100102F0100102C010010902E001020
:104B1000A80600108C2E001010B5FFF714FF10BD72
:104B2000F0B587B004936B46012400921B88029075
:104B3000E21AA3405B4212B21BB2039101920593A9
:104B4000631E009A1BB29A4267DD019B002B0CDBAF
:104B50001300013B1BB20093059B02339BB21AB2B8
:104B60000592019A9B181BB20193019A63000133CD
:104B70009B1804221BB20193049B13420FD06B4677
:104B80001F899D891E883819A91909B200B22D19EB
:104B9000BE19FFF733FD29B230B2FFF72FFD022215
:104BA000049B13420FD06B461F899D891E88E01914
:104BB000A91B09B200B2FFF721FDBE19291B09B2DA
:104BC00030B2FFF71BFD049B1B070FD56B461D89F9
:104BD0001F889E89E81BA11909B200B2FFF70EFDDC
:104BE000BE19281B31B200B2FFF708FD049BDB079A
:104BF00002D40134A4B2A3E76B461D891F889E89A5
:104C0000E81B311B09B200B2FFF7F8FCF61B281BAA
:104C100031B200B2FFF7F2FCEBE707B0F0BDF0B540
:104C20008BB01600089393B201220790D01A9340DC
:104C30005B421BB206938BB20493013B9BB202937F
:104C400010AB1B8800B2059302339BB20193002383
:104C5000009003930992039BB3425ADA009B002B06
:104C60000ADB069B013E02339BB21AB20692009AFF
:104C700036B29B181BB20093039C009A0134A4B275
:104C800023B20393630001339B181BB20093099A6C
:104C9000089B134217D06B46B5B29F8B059B6A00E9
:104CA0009A18049B3819591B12B209B200B2FFF7C7
:104CB0002DFE6B4604229A5E6B467D190821595ED3
:104CC00028B2FFF723FE0222089B134208D1029B61
:104CD000013B9BB20293019B02339BB20193BAE763
:104CE0006B46B7B29D8B059B7A009A18049B281BD4
:104CF000D91B12B209B200B2FFF708FE6B460422BC
:104D00009A5E6B46ED1B0821595E28B2FFF7FEFD47
:104D1000DDE70BB0F0BDF0B587B01F000CAB002491
:104D20001C5F01900E00012C03DC3B00FFF70BFE23
:104D300055E06B469B88A1B202935B181BB20093AF
:104D400093B203934B009BB20493049A039B3100EC
:104D50009D1A2DB22A000098BFB2FFF7E4FDB6B24B
:104D60007B1EF3189BB205936B462A001421595EF3
:104D70000098FFF7D8FDA3B29E19049B36B2FF1A24
:104D80003FB231003A000198FFF7C0FD039B3100AC
:104D90005D1E029B3A005D19ADB228B2FFF7B6FD69
:104DA0003100012322000098FFF7BAFEA3B2ED1AEA
:104DB0002DB23100022322002800FFF7B1FE059B2F
:104DC000A2B29E1A36B20423220031002800FFF757
:104DD000A7FE0823220031000098FFF7A1FE07B0CC
:104DE000F0BDF0B587B00C000CA900268E5F012E37
:104DF00003DC2100FFF7C2FD2DE0B7B281B292B211
:104E00007D0004920291AAB2C919059209B20391D8
:104E1000049A0599013B9DB2521A2BB2210012B29D
:104E20000398FFF7ABFD059B3C19ED1A049B24B2D8
:104E3000581E029B2DB21818C01B00B2012332006D
:104E400021000095FFF7EBFE0095022332002100C0
:104E50000398FFF7E4FE07B0F0BDFFFF054B064ADD
:104E600018600378013313704378044A01331370D8
:104E70007047C046942E00108E2E0010782C001023
:104E8000124A134B10B504001A60FFF7A7FB01226A
:104E9000104B11481A70114BDB321A80104B2C3A10
:104EA0001A80FFF7DBFF11220E4B02211A8000232C
:104EB0000D4A200013800D4A11700D4A13600D4AEF
:104EC000136093611363936410BDC046A80600107D
:104ED0007C2C0010052F0010B4BC0100FE2E001029
:104EE0009A2E001030010010902E0010982E001005
:104EF000802E00109C2E001010B5084B09B21B68C4
:104F000000B29B78D21A064BD2B21B78002B02D08B
:104F1000FFF72EF901E0FFF7EBF910BD942E00101A
:104F2000052F0010024B1878431E9841C0B27047FD
:104F3000052F001009490A4A0A4B002805D0012014
:104F40000870DC211180B02205E00870064909785C
:104F50001180064A12781A807047C046052F00104B
:104F6000FE2E00109A2E00102F01001032010010AA
:104F700010B50B4C0B490023E25E0B4B09881B68F4
:104F80005B785800091A0948007840B28A4203DD6C
:104F9000C018FFF731FD02E0C3189B18238010BD35
:104FA0008C2E00109A2E0010942E00102801001054
:104FB00070B52B4B04001A68D378002B03D06028FF
:104FC00001D9203CE4B20E2C21D8200003F0C6FA0F
:104FD000461F1F1F1F1F1F1F0E1F081F1F1B4600DE
:104FE0000022204B1A80FFF7C3FF37E01D491078DD
:104FF0000B882022181A1C4B80B208801978C0B286
:10500000FFF77AFF2AE00022164B1A8026E0154DA2
:1050100012780023E85E154B1B889B1A98420BDB25
:1050200000232B80124B1B78002B17D0FFF7A0FF1B
:105030000D4B2878197802E00B4BC0B2197822008A
:10504000FFF75AFF202C06D10A4B1B785BB2002BCE
:1050500001D0401001302B881818288070BDC04640
:10506000942E0010FC2E00108C2E0010FE2E00102E
:105070002A0100102501001010B504002078002836
:1050800003D00134FFF794FFF8E710BD10B5FFF728
:10509000F3FF10BD10B50D20FFF78AFF0A20FFF7C0
:1050A00087FF10BD10B5FFF7E7FFFFF7F3FF10BD57
:1050B000024B1880024B19807047C046FC2E00102E
:1050C0008C2E00100023F0B5050089B00E00984228
:1050D00003D13020FFF76CFF1CE05C1C28006B4400
:1050E00031001F0003F0D4FA28003970310003F0BA
:1050F00049FA2300051EF0D16B46013C1B5D1800E8
:105100003730C0B2092B01D83033D8B2FFF750FF87
:10511000002CF1D109B0F0BD10B5041E03DA2D202A
:10512000FFF746FF64420A212000FFF7CBFF10BDC6
:1051300010B5002903D1C0B2FFF73AFF07E00A29F2
:1051400002D1FFF7E9FF02E0C9B2FFF7BBFF10BDD4
:1051500010B5FFF7EDFF10BD10B5FFF7E9FFFFF742
:1051600099FF10BD10B5FFF7E3FFFFF793FF10BDE8
:1051700010B5044C20800448018019001000FFF78E
:10518000D7FF10BDFC2E00108C2E001010B500298A
:1051900003D1C0B2FFF70CFF02E0C9B2FFF792FFE4
:1051A00010BD10B5FFF7F2FFFFF774FF10BDFFFF52
:1051B00010B50248FDF768FF10BDC046042F00106F
:1051C00089104901D210C0100A43C0021043704731
:1051D00070B504000025074EA27861782078FFF7AB
:1051E000EFFF6B000135F0520334102DF4D1024B68
:1051F0001E6070BD802C0010882E001070B51F241A
:10520000050025400C40641B23B253431B12EB18CE
:105210003F2544114E112C40C00A3540C9122D1BA8
:10522000091A55434A4312122D1280181BB26419F1
:10523000021C002800DA002212B2D202181C002B35
:1052400000DA00201043231C002C00DA00231BB2DC
:105250005B01184380B270BD10B501F063FF0120FF
:1052600001F0A0FE10BDFFFF10B5022B3CD80428B2
:105270003AD803F073F9030E242B3200002249B20E
:10528000914204DB0A1C0A2900DD0A22D2B2174926
:1052900029E017489A0010588900095815481150FC
:1052A000154A08881478154A6043C0B2D05409885A
:1052B0000A12824200DD02006243114913E00E48E7
:1052C000007841430F48C1540F490CE00A48007868
:1052D00041430E48C1540E4905E007480078414358
:1052E0000C48C1540C49CA5410BDC0460F2F0010C1
:1052F000742F0010382F0010222F0010442F0010A0
:10530000832F00104D2F0010A72F0010B02F00107A
:10531000672F00105E2F00106A2F0010022A13D88A
:105320000A4B98540A4B50001B785943094B995427
:10533000002309498B5409494352012108488154EB
:105340000848815408498B547047C046092F001003
:10535000222F00102C2F0010062F00106E2F00108F
:10536000AA2F00102F2F0010182F001000230F4A13
:1053700010B51178994201D00D4B1B785178002956
:1053800002D00B4949785B189278002A02D0084A6B
:1053900092789B18074A084912788C5C63431C0A70
:1053A000E0B201F019FE054B1C8010BD2F2F00103C
:1053B000802F00105C2F001049D40100C83A001063
:1053C00010B5022811D80023084A41001354084A96
:1053D0001354084A8B52084A1354084A1354084A73
:1053E0001354084A1354FFF7C1FF10BDAA2F001031
:1053F0002C2F00106E2F0010182F0010802F00107F
:10540000A42F00102F2F001010B50400022804D87C
:10541000FFF7D6FF0022014B1A5510BD122F0010C6
:1054200070B505000C00022915D80800FFF7ECFF45
:10543000094BA200D5500023084A61008B5201217C
:10544000074A1155074A08311155074A1355074AAB
:105450001355074A135570BD982F00101C2F0010CC
:10546000122F00100F2F00104D2F0010B02F001022
:105470005E2F001070B50400022821D811490B5C82
:10548000002B1DD0104B185C002819D10F4D104E69
:10549000A2002B5D96595B009B5B0E4EB34201D17F
:1054A00008550DE00C49181208550C49DBB252584A
:1054B0009B0098582100FFF7B3FF2B5D01332B555C
:1054C00070BDC046862F0010122F0010152F00103F
:1054D0008C2F0010FFFF0000322F0010502F001003
:1054E00010B50020FFF7C6FF0120FFF7C3FF022021
:1054F000FFF7C0FF10BDFFFFF7B5040002284BD82F
:1055000026490B5C002B47D0254B1B5C002B43D15D
:10551000244B254D9C4687006600F858735B5B0062
:105520001A5A63460093002A18D1204B1B5D002BAA
:1055300002D07253028811E01D4B0A551B5D2000FA
:10554000002B03D0FFF796FF735B02E0FFF738FFF5
:1055500022E0009A5B00D25901929A5A01219310DD
:105560000A420FD01F209111D2120140103A103878
:10557000184052B22300FFF777FEAB5B01339BB2BA
:10558000AB53E6E73F20110A184022006400FFF702
:10559000C5FE2B5B01332B53F7BDC046122F001005
:1055A0002C2F0010982F00101C2F0010642F0010BB
:1055B000862F001010B50020FFF79EFF0120FFF797
:1055C0009BFF0220FFF798FF10BDFFFFF7B5040017
:1055D000022800D9B1E0594B1B5C002B00D1ACE094
:1055E000574A135C002B02D1FFF7EAFEA5E0554EA7
:1055F000013B1354335C002B29D1534865002B5ACF
:10560000A1005A1C514B524FCB585100CB5A072185
:10561000194039554F499F120F554F4F99053F7803
:10562000890E79431B0731554C49DB0F0B5593B25B
:105630004B4A2B52125D934209D34A4B1B5D002B00
:1056400002D0D21A2A5202E02000FFF7B9FE3D4AEA
:10565000454D135D013B1355444B1E5D013676B23B
:105660001E55434B1B5D00933A4B1F5D009BDF199A
:10567000404B1B5DFF18404BFFB2195D2F550029B1
:1056800007D0300003F008F83C4B1B5D58433F182F
:105690002F55285D2421243003F0E4F8384B295598
:1056A0001B57384D01936B461B790F002B55364B1A
:1056B0001957002908D0300002F0EEFF334B1B5D74
:1056C0005843019B18182855314B195D002910D0FB
:1056D000300002F0E1FF2F4B184004D502230138BF
:1056E0005B42184301302C4B1B5D58432B5DC018A7
:1056F0002855009B3F2B0AD02A5D131C52B2092A61
:1057000001DD092304E01A0602D5002300E000238E
:105710002B55224BDA5D224B1A55224B224A1B880D
:10572000125D5B1153432A5D5343094A125D534393
:105730001E4ADBB213551E4A1355F7BDAA2F00109F
:105740002C2F0010062F00106E2F0010382F001085
:10575000262F0010AD2F0010222F0010292F00102F
:10576000442F0010832F0010612F0010182F0010FD
:10577000092F0010322F0010B02F0010672F0010DB
:105780000F2F00104A2F00104D2F0010A72F0010D0
:105790005E2F0010010000806A2F001015D4010058
:1057A000472F0010242F00100C2F0010A42F0010E2
:1057B000802F001010B50020FFF708FF0120FFF731
:1057C00005FF0220FFF702FF10BDFFFF10B5021C0E
:1057D000002800DA0022064913B20A80054A5B114C
:1057E0001370054ADBB2D05C01F0BCFB10BDC046B3
:1057F000242F00105C2F001041D4010010B5084B7D
:105800001A780132D2B2072A00D907221A701B78FF
:10581000044AD05C044B188000B2FFF7D7FF10BDDC
:105820005C2F001039D40100242F001010B5074B55
:105830001A78002A01D0013A1A701B78044AD05C09
:10584000044B188000B2FFF7C1FF10BD5C2F0010A1
:1058500039D40100242F001010B5002803DBFF28E5
:1058600002DDFF2000E00020034B1880034B0020E6
:10587000185EFFF7ABFF10BD34010010242F00109D
:10588000014B18887047C046242F001010B501F056
:1058900089FB10BD054B032803D0054B022800D01F
:1058A000044B5A6400229964DA637047644B001019
:1058B000B84B0010184B001010B50248FDF7E4FB80
:1058C00010BDC0465D2F0010074B10B5596A1F234D
:1058D000CA05120F1940054B920001314900D058FA
:1058E00002F050FE10BDC0460080044054D40100B8
:1058F000064B186C03231840012804DD033843428B
:105900005841C00300E002487047C0460080044090
:10591000001BB700044B10B59C68FFF7E9FF1F237D
:1059200023400133584310BD008004400A4B10B59A
:105930001A6F03231340022B06D0032B07D0012B31
:1059400008D1FFF7D5FF06E0FFF7BEFF03E0FFF742
:10595000E1FF00E0014810BD00800440001BB700DB
:1059600010B5FFF7E3FF024B996F02F00BFE10BD7D
:10597000008004400122014B1A7170474931001028
:105980000022014B1A717047493100100122014B6E
:105990005A717047493100100022014B5A7170470B
:1059A000493100100122014B9A71704749310010B2
:1059B0000022014B9A717047493100100122014BBE
:1059C0005A707047493100100022014B5A707047DD
:1059D000493100100122014BDA7070474931001043
:1059E0000022014BDA707047493100100022014B50
:1059F0009A707047493100100022014B1A707047AD
:105A00004931001010B5054B9A79002A02D0FFF7F2
:105A1000F5FE01E001229A7010BDC0464931001028
:105A200010B5054B9A79002A02D0FFF7FFFE01E07E
:105A300001221A7010BDC0464931001010B504484B
:105A4000FCF780F80122034B1871034B5A6210BD1A
:105A50005031001049310010004000A010B504483A
:105A6000FCF770F80222034B5871034B5A6210BDC9
:105A7000A031001049310010004000A010B50448CA
:105A8000FCF760F80422034B9871034B5A6210BD77
:105A9000B42F001049310010004000A010B5044898
:105AA000FCF750F80822034B5870034B5A6210BDA4
:105AB000F830001049310010004000A010B5044833
:105AC000FCF740F81022034BD870034B5A6210BD0C
:105AD0000430001049310010004000A070B50F489C
